:100000000C94AA000C94D2000C94D2000C94F0052D
:100010000C941A060C9444060C94D2000C94D20052
:100020000C94D2000C94D2000C94D2000C94D20008
:100030000C94D2000C94D2000C94D2000C94D200F8
:100040000C94B2080C94D2000C94D2000C94D20000
:100050000C94D2000C94D2000C94D2000C94D200D8
:100060000C94D2000C94D20000C2010001001100D7
:1000700011000D0000E100000A002500250022000B
:10008000009600001900390039003600127A00008D
:100090001F004600460044008070000022004D0012
:1000A0004D004A00004B00003600750075007200DC
:1000B000403800004A009C009C0099008025000008
:1000C0007200EC00EC00E900C0120000E900DA0167
:1000D000DA01D70160090000D701B603B603B30304
:1000E000B0040000B3036E076E076B072C0100001D
:1000F000DC0EC11DC11DBE1D000000002400270034
:100100002A0000000000250028002B00000000004D
:100110002300260029000404040404040404020249
:100120000202020203030303030301020408102076
:100130004080010204081020010204081020000081
:100140000007000201000003040600000000000098
:100150000000300811241FBECFEFD8E0DEBFCDBFB6
:1001600011E0A0E0B1E0E2E9F4E102C005900D92F7
:10017000A433B107D9F711E0A4E3B1E001C01D92A7
:10018000AD38B107E1F711E0C4E5D1E004C0229732
:10019000FE010E940C0AC235D107C9F70E94AB08C4
:1001A0000C94470A0C940000CF93DF93BC0182307B
:1001B000910510F462E070E0A0918B01B0918C0188
:1001C000ED01E0E0F0E040E050E021C0888199815D
:1001D0008617970769F48A819B81309719F093837A
:1001E000828304C090938C0180938B01FE0134C004
:1001F0006817790738F44115510519F084179507E8
:1002000008F4AC01FE018A819B819C01E9012097E1
:10021000E9F641155105A9F1CA01861B970B049710
:1002200008F4BA01E0E0F0E02AC08D919C911197AA
:1002300084179507F9F46417750781F412968D9168
:100240009C911397309719F09383828304C0909305
:100250008C0180938B01FD0132964CC0CA01861B34
:10026000970BFD01E80FF91F6193719302978D932E
:100270009C9340C0FD01828193819C01D90110971C
:10028000A1F68091890190918A01892B41F4809196
:1002900026019091270190938A01809389014091D2
:1002A0002801509129014115510541F44DB75EB720
:1002B0008091240190912501481B590B20918901BF
:1002C00030918A01CA01821B930B8617970780F031
:1002D000AB014E5F5F4F8417950750F0420F531FDD
:1002E00050938A0140938901F9016193719302C08F
:1002F000E0E0F0E0CF01DF91CF910895CF93DF935D
:10030000009709F450C0EC0122971B821A82A09139
:100310008B01B0918C01109709F140E050E0AC17CF
:10032000BD0708F1BB83AA83FE0121913191E20F41
:10033000F31FAE17BF0779F48D919C911197280F89
:10034000391F2E5F3F4F3983288312968D919C91E0
:1003500013979B838A834115510571F4D0938C01C7
:10036000C0938B0120C012968D919C911397AD0183
:10037000009711F0DC01D3CFFA01D383C28321911E
:100380003191E20FF31FCE17DF0769F4888199815D
:10039000280F391F2E5F3F4FFA01318320838A8156
:1003A0009B8193838283DF91CF910895FB01DC01D0
:1003B00001900D920020E1F70895AEE0B0E0E3EE89
:1003C000F1E00C941E0A0D891E8986E08C831A8345
:1003D00009838FEF9FE79E838D839E01275E3F4FAA
:1003E000CE0101966F89788DA9010E9401022F81AB
:1003F0003885020F131FF80110822E96E4E00C944A
:100400003A0AABE0B0E0E7E0F2E00C94100A3C01FD
:100410002B015A01FC0117821682838181FD03C0E2
:100420006FEF7FEFC6C19AE0892E1E010894211C50
:10043000311CF3012381F20123FD859123FF81917A
:100440002F01882309F4B2C1853239F423FD859147
:1004500023FF81912F01853229F490E0B3010E949E
:10046000F403E7CF982FFF24EE249924FFE1FF1532
:10047000D0F09B3269F09C3228F4903259F09332DC
:1004800091F40EC09D3249F0903369F441E024C0EC
:1004900052E0F52A84E0F82A28C098E0F92A25C01D
:1004A000E0E1FE2A22C0F7FC29C0892F80538A3060
:1004B00070F4F6FE05C0989C902C1124980E15C07F
:1004C000E89CE02C1124E80EF0E2FF2A0EC09E32D8
:1004D00029F4F6FC6BC140E4F42A07C09C3619F4F9
:1004E00050E8F52A02C0983649F4F20123FD9591AF
:1004F00023FF91912F01992309F0B8CF892F8554BB
:10050000833018F08052833038F444E050E0A40E79
:10051000B51E5FE359830FC0933631F0933779F0FE
:10052000933509F056C020C0F5018081898342E0EF
:1005300050E0A40EB51E610101E010E012C0F5010B
:10054000C080D180F6FC03C06FEF7FEF02C0692D41
:1005500070E042E050E0A40EB51EC6010E94E9031F
:100560008C015FE7F52214C0F501C080D180F6FC54
:1005700003C06FEF7FEF02C0692D70E042E050E0F2
:10058000A40EB51EC6010E94DE038C0150E8F52AB8
:10059000F3FE07C01AC080E290E0B3010E94F403AA
:1005A000EA948E2D90E008171907A8F30EC0F60103
:1005B000F7FC8591F7FE81916F0190E0B3010E94F5
:1005C000F403E110EA94015010400115110579F788
:1005D000EAC0943611F0993669F5F7FE08C0F501C6
:1005E000208131814281538184E090E00AC0F5018D
:1005F000808191819C01442737FD4095542F82E0F2
:1006000090E0A80EB91E9FE6F92257FF09C0509549
:100610004095309521953F4F4F4F5F4FE0E8FE2AC0
:10062000CA01B901A1012AE030E00E942004D82EBD
:10063000D21840C0953729F41F2D1F7E2AE030E0E4
:100640001DC01F2D197F9F3661F0903720F498351B
:1006500009F0ACC00FC0903739F0983709F0A6C048
:1006600004C028E030E00AC0106114FD146020E1ED
:1006700030E004C014FD166020E132E017FF08C02E
:10068000F501608171818281938144E050E008C06E
:10069000F50180819181BC0180E090E042E050E072
:1006A000A40EB51EA1010E942004D82ED2188FE7F7
:1006B000F82EF122F6FE0BC05EEFF522D91438F4C5
:1006C000F4FE07C0F2FC05C08FEEF82202C01D2D1B
:1006D00001C0192DF4FE0DC0FE01ED0DF11D80814C
:1006E000803319F499EEF92208C01F5FF2FE05C0AD
:1006F00003C08F2D867809F01F5F0F2DF3FC14C007
:10070000F0FE0FC01E1510F09D2C0BC09D2C9E0CF2
:10071000911A1E2D06C080E290E0B3010E94F403FE
:100720001F5F1E15C0F304C01E1510F4E11A01C0AE
:10073000EE2404FF0FC080E390E0B3010E94F403B5
:1007400002FF1DC001FD03C088E790E00EC088E5F0
:1007500090E00BC0802F867891F001FF02C08BE201
:1007600001C080E2F7FC8DE290E0B3010E94F40347
:1007700006C080E390E0B3010E94F4039A94D91478
:10078000C0F3DA94F101ED0DF11D808190E0B30129
:100790000E94F403DD20A9F706C080E290E0B301D7
:1007A0000E94F403EA94EE20C1F743CEF301668180
:1007B0007781CB012B96E2E10C942C0AFC01059089
:1007C000615070400110D8F7809590958E0F9F1F53
:1007D0000895FC016150704001900110D8F7809598
:1007E00090958E0F9F1F08950F931F93CF93DF93C4
:1007F0008C01EB018B8181FF1BC082FF0DC02E811C
:100800003F818C819D812817390764F4E881F98143
:100810000193F983E88306C0E885F985802F09955F
:10082000892B31F48E819F8101969F838E8302C034
:100830000FEF1FEFC801DF91CF911F910F91089526
:10084000FA01AA27283051F1203181F1E8946F9301
:100850006E7F6E5F7F4F8F4F9F4FAF4FB1E03ED0A7
:10086000B4E03CD0670F781F891F9A1FA11D680F45
:10087000791F8A1F911DA11D6A0F711D811D911D78
:10088000A11D20D009F468943F912AE0269F1124ED
:100890003019305D3193DEF6CF010895462F477051
:1008A000405D4193B3E00FD0C9F7F6CF462F4F70AC
:1008B000405D4A3318F0495D31FD4052419302D00A
:1008C000A9F7EACFB4E0A6959795879577956795B0
:1008D000BA95C9F700976105710508959B01AC01B0
:1008E0000A2E06945795479537952795BA95C9F7D7
:1008F000620F731F841F951FA01D0895EF92FF9232
:100900000F931F93DF93CF93CDB7DEB76E970FB6DC
:10091000F894DEBF0FBECDBF7C0100D000D000D068
:10092000EDB7FEB731968E010F5F1F4FADB7BEB763
:1009300012961C930E93119786E091E09383828325
:10094000758364830E94DD01EDB7FEB736960FB65E
:10095000F894FEBF0FBEEDBFD70112968D919C910A
:100960001397B8010E94020A6E960FB6F894DEBF84
:100970000FBECDBFCF91DF911F910F91FF90EF90F0
:100980000895EF92FF920F931F93DF93CF93CDB70C
:10099000DEB76E970FB6F894DEBF0FBECDBF7C01F9
:1009A0008E010F5F1F4F662321F0C8016CE071E0DC
:1009B00003C0C80161E171E00E94D601F7018281A4
:1009C0009381B8010E94020A6E960FB6F894DEBFBA
:1009D0000FBECDBFCF91DF911F910F91FF90EF9090
:1009E0000895EF92FF920F931F93DF93CF93CDB7AC
:1009F000DEB76E970FB6F894DEBF0FBECDBF7C0199
:100A00008E010F5F1F4FC8016AE171E00E94D6019D
:100A1000F70182819381B8010E94020A6E960FB697
:100A2000F894DEBF0FBECDBFCF91DF911F910F9124
:100A3000FF90EF900895EF92FF920F931F93DF9333
:100A4000CF93CDB7DEB76E970FB6F894DEBF0FBE6B
:100A5000CDBF7C0100D000D000D0EDB7FEB73196FD
:100A60008E010F5F1F4FADB7BEB712961C930E934A
:100A700011978EE191E093838283758364830E9452
:100A8000DD01EDB7FEB736960FB6F894FEBF0FBE88
:100A9000EDBFD70112968D919C911397B8010E94DA
:100AA000020AF701828193810E94A7076E960FB612
:100AB000F894DEBF0FBECDBFCF91DF911F910F9194
:100AC000FF90EF900895CF92DF92EF92FF920F93F5
:100AD0001F937C01D62EC42E122F032F862F60E089
:100AE0000E945E098C2D61E00E945E09812F60E00A
:100AF0000E945E09F7011083018382E190E00E9469
:100B0000D400182F092F6D2D4C2D0E941108F701CC
:100B100012830383812F902F40E659E060E070E05C
:100B20000E946E061F910F91FF90EF90DF90CF9083
:100B300008951F93CF93DF93FC01A481B5812C917D
:100B40007381272309F048C08185928501972FEF93
:100B50008F3F9207D9F7C385D48531E060E040E04C
:100B600050E010E0CE01212F01972FEF8F3F920729
:100B7000D9F78C91872311F0632B03C0832F8095C5
:100B80006823330F4F5F5F4F4830510559F7858514
:100B9000968520E001972FEF8F3F9207D9F780913C
:100BA00076012091770190E001968F73907030E08C
:100BB0008217930779F0E0917601F0E0EA5CFE4F4E
:100BC00060838091760190E001968F73907080939E
:100BD000760102C081E0818BDF91CF911F91089552
:100BE0001F920F920FB60F9211242F933F934F93A2
:100BF0005F936F937F938F939F93AF93BF93EF9385
:100C0000FF938091340190913501009711F00E947B
:100C10009905FF91EF91BF91AF919F918F917F9136
:100C20006F915F914F913F912F910F900FBE0F9059
:100C30001F9018951F920F920FB60F9211242F93A9
:100C40003F934F935F936F937F938F939F93AF9354
:100C5000BF93EF93FF9380913401909135010097FA
:100C600011F00E949905FF91EF91BF91AF919F9173
:100C70008F917F916F915F914F913F912F910F9045
:100C80000FBE0F901F9018951F920F920FB60F92E4
:100C900011242F933F934F935F936F937F938F9381
:100CA0009F93AF93BF93EF93FF9380913401909103
:100CB0003501009711F00E949905FF91EF91BF91C6
:100CC000AF919F918F917F916F915F914F913F91E4
:100CD0002F910F900FBE0F901F901895CF92DF921B
:100CE000EF92FF920F931F93CF93DF93EC017A0162
:100CF0008B01188A1F861E861D861C861B861A86F7
:100D0000198620E030E06901CC0CDD1CC20ED31E38
:100D1000B601660F771F660F771FAB0148595F4F0B
:100D2000FA0185919591A591B4918E159F05A00723
:100D3000B107E9F4FB01E459FF4F859194919A873B
:100D40008987FB01E259FF4F859194919C878B879E
:100D5000FB01E059FF4F859194919E878D87FB01A0
:100D6000EE58FF4F85919491988B8F8706C02F5F27
:100D70003F4F2C30310509F0C6CF8D859E85892BDC
:100D800009F44CC03A81383090F480916800846056
:100D90008093680020916D0081E090E002C0880F90
:100DA000991F3A95E2F7282B20936D002FC03E3013
:100DB000B0F48091680081608093680040916B007E
:100DC000232F30E02850304081E090E002C0880FAF
:100DD000991F2A95E2F7482B40936B0017C03631D4
:100DE000A8F48091680082608093680040916C0054
:100DF000232F30E02E50304081E090E002C0880F79
:100E0000991F2A95E2F7482B40936C008F859889AB
:100E100020E001972FEF8F3F9207D9F7809134019F
:100E2000909135018C179D0771F0198A9FB7F8943E
:100E3000109276018091760180937701D0933501ED
:100E4000C09334019FBFDF91CF911F910F91FF900D
:100E5000EF90DF90CF9008950F931F93DC011F96C2
:100E60008D919C915097892B09F46EC0809134012B
:100E7000909135018A179B0781F051961C925197EA
:100E80009FB7F89410927601809176018093770154
:100E9000B0933501A09334019FBF1FB7F894179604
:100EA000ED91FC911897908116968C9116978095EC
:100EB000892380831F968D919C915097059620E001
:100EC00001972FEF8F3F9207D9F731E040E050E0D4
:100ED00070E000E0832F90E0862397231796ED9132
:100EE000FC91189716962C911697892B21F08081EA
:100EF000822B808304C080812095282320831F9625
:100F00008D919C915097202F01972FEF8F3F920743
:100F1000D9F7330F4F5F5F4F48305105D9F6179619
:100F2000ED91FC911897808116969C911697892BCC
:100F300080831FBF1F968D919C91509720E0019751
:100F40002FEF8F3F9207D9F71F910F9108952091AE
:100F50003401309135012817390749F49FB7F894C7
:100F60001092760180917601809377019FBF08955A
:100F7000FF920F931F938C01F62E862F60E00E9444
:100F80005E098F2D61E00E947E09D8011296FC92C5
:100F900012978F2D90E0FC01E65DFE4FE4911396D1
:100FA000EC9313978A5E9E4FFC016491E62FF0E06C
:100FB000EE0FFF1FE45FFE4F8591949115969C9371
:100FC0008E9314971F910F91FF900895FF920F93A6
:100FD0001F938C01F62E862F61E00E945E098F2DF3
:100FE00061E00E947E098F2D90E0FC01E65DFE4FDE
:100FF000E491D8011696EC9316978A5E9E4FFC01F9
:101000006491E62FF0E0EE0FFF1FEE5FFE4F85913B
:10101000949118969C938E9317971F910F91FF9020
:101020000895FF920F931F938C01F62E8EE291E0AC
:10103000F8019183808312861186148613861686A2
:101040001586108A1786118AC801642F0E94E60748
:10105000C8016F2D0E94B8071F910F91FF9008954E
:1010600088E791E062E070E043E050E024E030E0A7
:101070000E9463058CE791E065E070E046E050E097
:1010800027E030E00E946305089588E791E060EC76
:1010900070EE0E947E048CE791E068E873E10E94A4
:1010A0007E0488E791E068EC70E00E941B058CE705
:1010B00091E06AEF70E00E941B0588E791E06AEF1B
:1010C00070E00E941B05FFCFEF92FF920F931F93DA
:1010D00064E670E080E090E00E94FA0888E7E82E7D
:1010E00081E0F82EC70160E971E00E941B050CE762
:1010F00011E0C80160E971E00E941B05C70160E4CE
:101100007FE10E947E04C80168E57BE10E947E04C5
:10111000C70160E971E00E941B05C80160E971E048
:101120000E941B05C7010E94F104C8010E94F1043E
:10113000C70160E00E94C104C80160E00E94C104D0
:1011400068EC70E080E090E00E94FA081F910F9137
:10115000FF90EF9008950E9424090E9464080E9465
:101160004508FDCF1F920F920FB60F9211242F93B7
:101170003F938F939F93AF93BF93809184019091FE
:101180008501A0918601B091870130918801019677
:10119000A11DB11D232F2D5F2D3720F02D57019656
:1011A000A11DB11D20938801809384019093850136
:1011B000A0938601B0938701809180019091810175
:1011C000A0918201B09183010196A11DB11D809370
:1011D000800190938101A0938201B0938301BF911C
:1011E000AF919F918F913F912F910F900FBE0F90D4
:1011F0001F901895EF92FF920F931F937B018C0124
:101200008FB7F894409184015091850160918601D7
:10121000709187018FBF2FB7F894809184019091CE
:101220008501A0918601B09187012FBF841B950B8A
:10123000A60BB70BE816F9060A071B0760F71F9104
:101240000F91FF90EF900895789484B5826084BDEB
:1012500084B5816084BD85B5826085BD85B58160BA
:1012600085BDEEE6F0E0808181608083E1E8F0E01A
:10127000808182608083808181608083E0E8F0E00B
:10128000808181608083E1EBF0E0808184608083F5
:10129000E0EBF0E0808181608083EAE7F0E080812C
:1012A000846080838081826080838081816080838C
:1012B0008081806880831092C1000895282F30E0DB
:1012C000C901865D9E4FFC0194912A5E3E4FF90153
:1012D0008491882391F0E82FF0E0EE0FFF1FE85093
:1012E000FF4FA591B491662329F48C9190958923A1
:1012F0008C9308958C91892B8C930895482F50E0FE
:10130000CA01825C9E4FFC012491CA01865D9E4FFA
:10131000FC0194914A5E5E4FFA0134913323D1F17E
:10132000222331F1233021F4809180008F7705C092
:10133000243031F4809180008F7D8093800018C02C
:10134000213019F484B58F7704C0223021F484B59C
:101350008F7D84BD0DC0263021F48091B0008F7741
:1013600005C0273029F48091B0008F7D8093B000B4
:10137000E32FF0E0EE0FFF1FEE5FFE4FA591B4915B
:10138000662329F48C91909589238C9308958C91F0
:10139000892B8C9308950F931F93CF93DF938C0128
:1013A000EB0109C02196D801ED91FC910190F081EB
:1013B000E02DC801099568816623A1F7DF91CF91DF
:1013C0001F910F910895EF92FF920F931F93CF9368
:1013D000DF938C017B01EA010CC0D7016D917D0187
:1013E000D801ED91FC910190F081E02DC8010995A3
:1013F0002197209791F7DF91CF911F910F91FF9047
:10140000EF900895DC01ED91FC910280F381E02DD5
:1014100009950895EE0FFF1F0590F491E02D0994B2
:101420002F923F924F925F926F927F928F929F92F4
:10143000AF92BF92CF92DF92EF92FF920F931F93E2
:10144000CF93DF93CDB7DEB7CA1BDB0B0FB6F89493
:10145000DEBF0FBECDBF09942A88398848885F84D3
:101460006E847D848C849B84AA84B984C884DF8044
:10147000EE80FD800C811B81AA81B981CE0FD11D28
:101480000FB6F894DEBF0FBECDBFED010895F894FE
:02149000FFCF8C
:101492007B44256C7D007B4525697D007B50317D39
:1014A200007B50307D007B4E7D007B517D007B4177
:1014B20025697D0020008D010000000000002C073E
:0414C200CB09E30966
:00000001FF
